:020000040800F2
:10000000D81C00209D010008ED540008874100081D
:10001000E9540008AD0400083D6700080000000036
:10002000000000000000000000000000F75B000876
:100030005F07000800000000B9580008695C00086C
:10004000B7010008B7010008B7010008B7010008B0
:10005000B7010008B7010008B7010008B7010008A0
:10006000010E0008B7010008B7010008B701000839
:10007000B7010008B7010008B7010008B701000880
:100080003106000841060008B7010008B701000862
:10009000B7010008B7010008B7010008B701000860
:1000A000B7010008B7010008B7010008B701000850
:1000B000B7010008B7010008E95D0008B7010008B2
:1000C000B7010008B7010008B7010008B701000830
:1000D000B7010008B70100086D6600087D660008DA
:1000E000B7010008B7010008B7010008B701000810
:1000F000B7010008B7010008B7010008B701000800
:10010000B7010008B7010008F95D0008B701000851
:100110005D610008B7010008B7010008095E00082A
:1001200051060008B701000861060008B701000881
:10013000B7010008B7010008B7010008B7010008BF
:10014000B7010008B7010008B7010008B7010008AF
:10015000B701000871060008B70100088D660008A5
:10016000B7010008B7010008B7010008B70100088F
:10017000B7010008B7010008B7010008000000003F
:10018000B7010008B7010008DFF80CD000F0CEF886
:1001900000480047BD6F0008D81C00200648804773
:1001A00006480047FEE7FEE7FEE7FEE7FEE7FEE75C
:1001B000FEE7FEE7FEE7FEE7855D0008890100082F
:1001C0002DE9F05F0546002092469B46884606468C
:1001D000814640241BE0284641464746224600F01F
:1001E00095F853465A46C01A914110D31146184605
:1001F000224600F07CF82D1A67EB01084F46224694
:100200000120002100F073F817EB00094E41201E79
:10021000A4F10104DFDC484631462A464346BDE8E6
:10022000F09F40EA01039B0703D009E008C9121FB1
:1002300008C0042AFAD203E011F8013B00F8013BA0
:10024000521EF9D27047D2B201E000F8012B491ECC
:10025000FBD270470022F6E710B513460A46044663
:100260001946FFF7F0FF204610BD30B505462A4677
:100270000B4612F8010B13F8014B08B1A042F8D05D
:100280001CB1002802D06D1CF1E7284630BDCAB26F
:10029000401E10F8011F8A4202D00029F9D1002027
:1002A0007047421C10F8011B0029FBD1801A7047CF
:1002B000034611F8012B00F8012B002AF9D118464A
:1002C000704730B50B46014600202022012409E08A
:1002D00021FA02F59D4205D303FA02F5491B04FAFF
:1002E00002F52844151EA2F10102F1DC30BD202ADE
:1002F00004DB203A00FA02F1002070479140C2F17D
:10030000200320FA03F3194390407047202A04DBAE
:10031000203A21FA02F00021704721FA02F3D0407E
:10032000C2F120029140084319467047064C074D20
:1003300006E0E06840F0010394E8070098471034B5
:10034000AC42F6D3FFF724FF7C3A01089C3A01083F
:1003500054494A6822F440324A604A6843681A4362
:100360004A600268526822F4807203685A60026828
:100370005368026943EA022203685A6002685268BD
:1003800022F0407203685A600268526883681A4318
:1003900003685A600268926822F4006203689A60F7
:1003A00002689268C3681A4303689A603E4B826A87
:1003B0009A4218D00268926822F0706203689A60CC
:1003C00002689268836A1A4303689A6002689268B6
:1003D00022F0405203689A6002689268C36A1A4326
:1003E00003689A600BE00268926822F0706203680A
:1003F0009A600268926822F0405203689A6002682C
:10040000926822F0020203689A6002689368826927
:1004100043EA420203689A60026AA2B10268526823
:1004200042F4006203685A600268526822F4604233
:1004300003685A6002685368426A521E43EA4232B5
:1004400003685A6005E00268526822F4006203689B
:100450005A600268D26A22F470020368DA620268A3
:10046000D36A828B521E43EA02520368DA62026840
:10047000926822F4007203689A6002689368026BC3
:1004800043EA422203689A600268926822F480621A
:1004900003689A6002689368426943EA82220368AB
:1004A0009A607047002301400100000F00BFFEE783
:1004B00000B587B000BF002001901B48006840F0E5
:1004C0001000194908600846006800F0100001900B
:1004D00000BF00BF00BF002001900846006840F048
:1004E000100008600846006800F01000019000BF8E
:1004F00000BF0620029011200390002004900120EC
:10050000059002A9094801F03BFB0122042107489C
:1005100001F042FC01220221044801F03DFC04F0FC
:100520002FF807B000BD0000303802400010024034
:100530002DE9F05F04464FF00008C14604F000F8D2
:10054000B82003F0BFFF04F03BF8002867D1002576
:1005500003F0B8FF06E02846691C8DB2B0F57A7F3B
:1005600000DB03E004F02CF80028F4D100BF0025E4
:1005700003F0E6FFB92003F0A5FF06E02846691C5A
:100580008DB2B0F57A7F00DB03E004F019F80028A3
:10059000F4D100BF012003F05BFF0646012003F009
:1005A00057FF0746012003F053FF8046012003F068
:1005B0004FFF8146002003F04BFF824603F0E0FF2F
:1005C00008EB09003044384400F0FF0BD34529D133
:1005D00008EB880209EB420006EB860207EB4201BA
:1005E000B0F5167F02DB4FF4167000E000BF40F25A
:1005F000B632914201DB114600E000BF62880AB9C1
:100600000A4602E062880A445210628022880AB9CF
:10061000024602E0228802445210228002E002A038
:1006200006F0ECF9BDE8F09F6572726F7200000091
:1006300010B5024801F070F810BD000060120020F3
:1006400010B5024801F068F810BD0000C01200208B
:1006500010B5024801F060F810BD00000011002044
:1006600010B5024801F058F810BD0000201300201A
:1006700010B5024801F050F810BD000080130020B2
:100680000146087810381823B0FBF3F20848805C64
:10069000C865032A05D908686FF30900001D88653D
:1006A00003E008686FF309008865886D70470000F3
:1006B0005C3A0108014600208A6A8B69CBB932B1E5
:1006C000012A0DD0022A03D0032A10D10EE000BF68
:1006D000CB6A03F08073B3F1807F00D1012007E083
:1006E000CB6AB3F1C07F00D1012001E000E000BF80
:1006F00034E08B69B3F5005F1AD132B1012A07D01B
:10070000022A03D0032A11D10AE000BF01200EE023
:10071000CB6A03F08073B3F1807F00D1012006E043
:10072000CB6AB3F1C07F00D1012000E000BF15E02B
:1007300032B1012A05D0022A04D0032A0CD103E0E9
:1007400000BF00BF012008E0CB6A03F08073B3F163
:10075000807F00D1012000E000BF00BF70477047DC
:1007600070B5044601F01EFB054600BF01F01AFB00
:10077000401BA042FAD370BD71B500BF4FF0E02519
:100780006C69A826009D05FB06F300224FF0E025CA
:10079000A96910E04FF0E025A86988420BD0884293
:1007A00002D20D1A2A4402E0251A0D442A440146B9
:1007B0009A4200D300E0EDE700BF78BD2DE9F0419B
:1007C0009AB004463E480078002877D000203C4983
:1007D00008703C4901A8FFF76BFD2C2101A8FFF729
:1007E00056FD0546A01CFFF75CFD80464146A01C57
:1007F000FFF730FD01A82A1A01A9A01CFFF711FD7F
:100800002C21681CFFF743FD064604F12000FFF78A
:1008100048FD8046414604F12000FFF71BFD701B98
:10082000421E691C04F12000FFF7FBFC7778276566
:1008300025A007F06BFD00F0B3F929A007F066FDD5
:10084000012000F0F3F940F6B830FFF789FF2AA045
:1008500007F05CFD04F12001A01C00F08DF860B9E8
:100860002BA007F053FD4FF4FA60FFF779FF01204A
:1008700000F028FA1AB0BDE8F0812CA007F046FD80
:1008800042F2B8212FA000F0BBF8002031490870D7
:1008900001202070204607F098FE01202E49487460
:1008A0002EA007F033FD0120324988730320C8735E
:1008B00022460521002000F0F1F800BF00BFD9E773
:1008C000A4000020501800205769466920436F6E2D
:1008D0006669677572696E672E2E2E20312F34007F
:1008E0005769466920436F6E6669677572696E67FE
:1008F0002E2E2E20322F34005769466920436F6E0A
:100900006669677572696E672E2E2E20332F34004C
:100910004572722061742053747020332120547208
:100920007920416761696E2E0000000057694669B1
:1009300020436F6E6669677572696E672E2E2E2072
:10094000342F340033392E3130362E3231332E32BB
:1009500031370000A30000203E1800205769466987
:1009600020436F6E6669677572696E672020446FF9
:100970006E652100D415002070B59AB004460D466E
:1009800064211548FFF766FC0020144908702B46C7
:10099000224613A101A806F041F801A805F07EFE49
:1009A00041F27070FFF7DCFE00260DE001A805F0B3
:1009B00075FE4FF47A60FFF7D3FE701CC6B2082EA6
:1009C00002DB00201AB070BD0CA10348FFF74DFCFC
:1009D0000028EBD00120F5E7AD1600209C00002098
:1009E00041542B43574A41505F4445463D222573AD
:1009F000222C222573220D0A000000004F4B00001C
:100A000030B599B004460D4664211848FFF722FC22
:100A10000020174908702B46224616A1684605F0AB
:100A2000FDFF684605F03AFE40F6B830FFF798FE45
:100A300009E0684605F032FE4FF47A70FFF790FE49
:100A4000032E00DB05E014A10848FFF70EFC002888
:100A5000EFD000BF00F094F80FA10448FFF705FCA9
:100A600010B9012019B030BD0020FBE7AD16002001
:100A70009C00002041542B534156455452414E5343
:100A80004C494E4B3D312C222573222C25642C22BF
:100A9000544350220D0A00004F4B00002DE9F04353
:100AA00085B004460D469046012710208DF80000C1
:100AB00020208DF80F0005F11000C0B28DF8010064
:100AC00098F85000303800F0FF098DF80290391284
:100AD0008DF803108DF804709DF8000030449DF8E7
:100AE0000010084408449DF8021001449DF80300DA
:100AF00001449DF804000844C6B265B9002008E02E
:100B000022780DF105010A5421783144CEB2641CDB
:100B1000401C0828F4DB012D0DD1002008E0442200
:100B20000DF105010A5421783144CEB2641C401CF9
:100B30000828F4DB0DE0022D0BD1002007E0112284
:100B40000DF105010A5406F11101CEB2401C08282E
:100B5000F5DB052D0CD1002008E033220DF1050155
:100B60000A5421783144CEB2641C401C0828F4DBBE
:100B70008DF80D60684605F0B1FD05B0BDE8F08365
:100B800010B504A005F08AFD4FF4FA60FFF7E8FD08
:100B900010BD000041542B5253540D0A00000000B8
:100BA00010B564211748FFF755FB0020164908705F
:100BB00016A005F073FD4FF4FA60FFF7D1FD14A005
:100BC00005F06CFD4FF47A70FFF7CAFD09E010A044
:100BD00005F064FD4FF4FA60FFF7C2FD032C00DB63
:100BE00005E011A10748FFF740FB0028EFD000BF48
:100BF0000DA10448FFF739FB08B9012010BD002002
:100C0000FCE70000AD1600209C0000202B2B2B00E1
:100C100041542B534156455452414E534C494E4B2F
:100C20003D300D0A000000004F4B000010B59AB097
:100C3000044664211648FFF70DFB00201549087093
:100C4000224615A101A805F0E9FE01A805F026FD40
:100C50004FF4FA60FFF784FD09E001A805F01EFDDE
:100C60004FF4FA60FFF77CFD032D00DB05E00FA1D8
:100C70000748FFF7FAFA0028EFD000BF0BA104489D
:100C8000FFF7F3FA10B101201AB010BD0020FBE706
:100C9000AD1600209C00002041542B43574D4F447B
:100CA000455F4445463D25640D0A00004F4B00005A
:100CB00010B5044601221146014801F06DF810BD3F
:100CC0000008024010B5044601201549087014B10F
:100CD00014A007F01BFBFFF763FF14B117A007F088
:100CE00015FB0220FFF7A2FF14B11AA007F00EFBBC
:100CF00041F690711DA0FFF783FE14B11EA007F00E
:100D000005FB4FF4FA70FFF72BFD21A005F0E6FC80
:100D100024B10120214988730220C873012010BD2D
:100D2000A30000205769466920436F6E66696720FB
:100D3000507265702E2E2E20312F33005769466970
:100D400020436F6E66696720507265702E2E2E20CC
:100D5000322F33005769466920436F6E66696720FA
:100D6000507265702E2E2E20332F33003139322EE3
:100D70003136382E342E32005769466920436F6E63
:100D8000666967205072657020446F6E65000000D0
:100D9000436F6E6E656374204F6B2100D415002085
:100DA00070B504461248007800B300201149087459
:100DB000012060701048407800F00F050F4840880F
:100DC000B0F5167F03DB0321002004F037FD022D70
:100DD00006D1094806793146002004F02FFD00E0D5
:100DE00000BF00BF00200249087000BF70BD0000B6
:100DF000A2000020D41500202C1800201A18002072
:100E000010B5042000F0AEFE10BD000070B5044621
:100E10001D460023B5F5804F13D154F822300C48FD
:100E20000340D1E9000640EA06108E6840EA062039
:100E30008E8940EA06408E693043034344F82230ED
:100E400003E06FF0704044F82200002070BD000005
:100E50000000F0CF10B503460022086853F82020A8
:100E600012480240D1E901042043CC6820430C69B8
:100E700020434C6920438C692043CC6920430C6A91
:100E800020434C6A20438C6A2043CC6A2043CC6BBD
:100E900020430C6B204302438868082801D142F0AC
:100EA0004002086843F82020002010BD8000F0FFB9
:100EB00030B503460024501C53F8204004F0404451
:100EC000D1E9000540EA05108D6840EA05208D89CA
:100ED00040EA0545088A401E45EA0055087D801E07
:100EE00045EA00608D6928430443501C43F82040C4
:100EF000002030BD70B505460E46002403F0F6F91B
:100F0000702003F0B9F903F02DFA002003F0B4F9D2
:100F100003F028FA03F008FA03F0E8F9712003F06F
:100F2000ABF903F01FFA00BF0DE0701EA04204D120
:100F3000002003F06FF9285503E0012003F06AF95F
:100F40002855601C44B2B442EFD303F0EDF9002001
:100F500070BD000000B587B000BF002001901348AD
:100F6000006840F00200114908600846006800F07F
:100F70000200019000BF00BF0320029011200390E7
:100F8000002004900120059002A9094800F0F8FD16
:100F900001221146064800F0FFFE0122022104480A
:100FA00000F0FAFE03F0C0F907B000BD303802408F
:100FB000000402400146084600F00F000A2803DA48
:100FC00000F13002D0B214E00A2801D1612010E013
:100FD0000B2801D162200CE00C2801D1632008E02D
:100FE0000D2801D1642004E00E2801D1652000E025
:100FF000662070472DE9F84F06460F469046994601
:101000000A9C208861884843C0100090608838445A
:10101000401E83B220883044401E82B2394630469A
:1010200003F034FE00990B9800FB01F519E06068AD
:1010300010F805B04FF0000A0FE00BF0800018B177
:101040001048A0F8008002E00E48A0F800904FEA97
:101050004B604FEA106B0AF1010ABAF1080FECD3AA
:101060006D1C0B98401C00994843A842DFD840F201
:10107000DF1340F255320021084603F007FEBDE8B9
:10108000F88F0000000002602DE9F84304460D4689
:1010900016461F46DDF820803B463246294620464C
:1010A000CDF8008005F01EFFBDE8F8832DE9FF4F65
:1010B00083B0DDF80C80DDF81090DDE9030103F06A
:1010C0001EFEDDF80C800598A0EB0805DDF81090F9
:1010D0000698A0EB0906002D02DB0120029003E038
:1010E0004FF0FF3002906D42002E02DB0120019094
:1010F00003E04FF0FF30019076424FEA450A4FEA95
:10110000460BB54217DDABEB0504002710E01FFAD4
:1011100089F11FFA88F0109A00F0D6F8002C03DB52
:10112000A4EB0A04019881445C44029880447F1C2B
:10113000AF42ECDD16E0AAEB0604002710E01FFA30
:1011400089F11FFA88F0109A00F0BEF8002C03DB3A
:10115000A4EB0B04029880445444019881447F1C02
:10116000B742ECDD07B0BDE8F08F00002DE9FC4789
:1011700005460F4690461E46DDE90A493E48009660
:10118000438800884FF6FF7101EA800239462846FD
:1011900003F068FD642094FBF0F068B1642094FBD8
:1011A000F0F000F0FF0A3448334642463946CDE9B4
:1011B000000A2846FFF71EFF642094FBF0F100FBB5
:1011C00011400A2190FBF1F018B9642094FBF0F073
:1011D000A8B1642094FBF0F100FB11400A2190FBC0
:1011E000F1F000F0FF0A24480146CDE9000A098821
:1011F000294488B2334642463946FFF7FBFEB9F12F
:10120000000F22D00A201C49CDE90010098805EB07
:10121000410188B2334642463946FFF7EBFE0A20C9
:1012200094FBF0F100FB114000F0FF0A1248014668
:10123000CDE9000A098801EB4101294488B233460F
:1012400042463946FFF7D6FE13E00A2094FBF0F140
:1012500000FB114000F0FF0A07480146CDE9000AF3
:10126000098805EB410188B2334642463946FFF70B
:10127000C1FEBDE8FC870000000000202DE9F84316
:1012800005460E4617469846089C33463A46314670
:1012900028460094FFF70AFF43462A46314628466F
:1012A0000094FFF703FF43463A4641462846009420
:1012B000FFF7FCFE43463A46314638460094FFF7B6
:1012C000F5FEBDE8F883000070B505460E461446ED
:1012D0003146284603F013FD0148048070BD00002C
:1012E0000000026038B502460020009000BF92F86E
:1012F0003C00012801D1022038BD012082F83C00C9
:1013000000BF0868092816D91068C0680C780A3C24
:1013100004EB44050724AC40A0431468E0600C785B
:101320000A3C04EB44048868A0401468E468204345
:101330001468E06013E0106800690C7804EB440561
:101340000724AC40A043146820610C7804EB4404EB
:101350008868A040146824692043146820614868A4
:10136000072817D21068406B0C79641E04EB8405C3
:101370001F24AC40A04314686063088880B20C79D5
:10138000641E04EB8404A0401468646B204314685A
:10139000606331E048680D2817D21068006B0C7943
:1013A000E41F04EB84051F24AC40A04314682063B1
:1013B000088880B20C79E41F04EB8404A040146810
:1013C000246B20431468206316E01068C06A0C790F
:1013D0000D3C04EB84051F24AC40A0431468E0627C
:1013E000088880B20C790D3C04EB8404A04014689A
:1013F000E46A20431468E062194B1A4C1068A0425A
:1014000006D10868122803D1586840F4800058605B
:10141000144C1068A0421CD10868102802D008683B
:10142000112816D1586840F4000058600868102848
:101430000FD10D4800680D4CB0FBF4F000EB8000BC
:101440004000009002E00098401E009000980028A4
:10145000F9D100BF002082F83C0000BF00BF4BE77D
:1014600000230140002001407400002040420F0092
:1014700001460868C06C704770B5044600250CB979
:10148000012070BD1549A06A884200D000BF206CC1
:1014900030B90020606484F83C00204600F020F859
:1014A000206C00F0100088B9206C20F4885040F0C7
:1014B000020020642046FEF74BFF00206064206C91
:1014C00020F0020040F00100206400E0012500BF90
:1014D000002084F83C0000BF2846D2E70100000F3E
:1014E00010B586B0044623492068884240D100BF29
:1014F000002000902048006840F480701E49086079
:101500000846006800F48070009000BF00BF802093
:101510000190032002900020039001A9174800F0D9
:101520002FFB174817490860002048600021154824
:101530008160C1604FF480610161490041618900AF
:1015400081614911C16100210162042141620321CD
:1015500081620021C162016300F0FEF918B17E21B1
:1015600009A005F049FA00BF0648A063846300BFE4
:1015700006B010BD00200140443802400000024087
:1015800010640240001100202E2E2F5372632F6131
:1015900064632E630000000008B50146002000903F
:1015A00000BF91F83C00012801D1022008BD0120B4
:1015B00081F83C0000BF0868806800F00100A0B915
:1015C0000868806840F001000B6898602E48006849
:1015D0002E4BB0FBF3F000EB4000009002E00098CF
:1015E000401E009000980028F9D10868806800F03B
:1015F0000100002845D0086C40F20163984340F494
:10160000807008640868406800F4806028B1086C45
:1016100020F4005040F480500864086C00F48050BE
:1016200020B1486C20F00600486401E000204864C6
:1016300000BF002081F83C0000BF154A6FF0220077
:101640000B681860506800F01F0058B9086880687F
:1016500000F04050A8B90868806840F080400B68EE
:1016600098600EE00B4B086898420AD108688068C1
:1016700000F0405028B90868806840F080400B684E
:101680009860002092E700007400002040420F00A4
:10169000002301400020014010B504460CB9012090
:1016A00010BD607920B900202071204600F006F8B6
:1016B00002206071012060710020F1E708B50A4A3C
:1016C000016891420FD100BF0021009107490968CC
:1016D00041F48051054A11601146096801F48051B6
:1016E000009100BF00BF08BD00300240303802400A
:1016F000014691F83500022803D08020486501207A
:101700007047052081F835000868006820F0010066
:101710000A6810600020F3E7F8B504460020009046
:101720008C4800684FF41651B0FBF1F7A56D2E6898
:1017300094F85C1008208840304098B12068006818
:1017400000F0040070B12068006820F004002168F7
:10175000086094F85C1008208840A860606D40F034
:101760000100606594F85C1001208840304068B149
:101770002068406900F0800040B194F85C100120BE
:101780008840A860606D40F00200606594F85C10CD
:1017900004208840304068B12068006800F00200F2
:1017A00040B194F85C1004208840A860606D40F05F
:1017B0000400606594F85C1010208840304078B3D5
:1017C0002068006800F0080050B394F85C10102006
:1017D0008840A8602068006800F4802080B12068FC
:1017E000006800F4002028B9206CC8B12046216CA4
:1017F000884715E0A06C98B12046A16C88470FE09F
:101800002068006800F4807028B92068006820F023
:10181000080021680860206C10B12046216C8847C0
:1018200094F85C10202088403040002865D0206863
:10183000006800F0100000285FD094F85C102020B1
:101840008840A86094F83500052828D120680068F1
:1018500020F01600216808602068406920F08000B0
:1018600021684861206C08B9A06C28B12068006824
:1018700020F008002168086094F85C103F20884040
:10188000A86000BF002084F8340000BF012084F865
:101890003500206D10B12046216D8847F8BD2068C5
:1018A000006800F4802080B12068006800F4002007
:1018B00028B9606C10B12046616C88471DE0E06B70
:1018C000D8B12046E16B884717E02068006800F433
:1018D000807068B92068006820F0100021680860F6
:1018E00000BF002084F8340000BF012084F83500D8
:1018F000E06B10B12046E16B8847606D38B3606DD6
:1019000000F00100F0B1052084F83500206800687F
:1019100020F001002168086000BF0098401C009082
:10192000B84200D905E02068006800F001000028F6
:10193000F3D100BF00BF002084F8340000BF0120B5
:1019400084F83500E06C10B12046E16C884700BF98
:10195000A4E70000740000202DE9F04104460025B2
:1019600000F020FA074614B90120BDE8F081606A52
:1019700000B100BF00BF002084F8340000BF022087
:1019800084F835002068006820F0010021680860B4
:101990000AE000F007FAC01B052805D92020606581
:1019A000032084F83500E0E72068006800F00100BB
:1019B0000028EED12068056821480540D4E90101DE
:1019C0000843E16808432169084361690843A16944
:1019D0000843E1690843216A08430543606A042813
:1019E00003D1D4E90B010843054320680560206852
:1019F000456925F00705606A0543606A04280DD132
:101A0000A06A0543E06A48B12046FEF753FE28B1BC
:101A100040206065012084F83500A6E72068456114
:101A20002046FEF72DFE064694F85C103F208840C5
:101A3000B06000206065012084F83500002094E744
:101A40003F8010F000B587B01B48006808B107B0B0
:101A500000BD01201849086000BF00200190174810
:101A6000006840F00100154908600846006800F071
:101A70000100019000BF00BF4FF68070029002206D
:101A8000039000200490032005900C20069002A9EA
:101A90000B4800F075F84CF6B370029002200390EA
:101AA00000200490032005900C20069002A9054810
:101AB00000F066F800BFCAE7900000203838024006
:101AC00000100240000C024070B50546042D26D1DE
:101AD0000421134800F05CF9072003F07BFD044665
:101AE00004F0400048B10FA004F088FF104803F054
:101AF00057FD01200F49087010E004F0200018B1D4
:101B00000DA004F07BFF09E004F0100018B10EA056
:101B100004F074FF02E010A004F070FF00BF70BD7D
:101B200000080240322E34673A7265630A000000F2
:101B3000B4180020A5000020322E34673A73656E79
:101B4000645F6F6B0A000000322E34673A6D617873
:101B50005F72740A00000000322E34673A4E6F6ED6
:101B6000650A000010B5044604480068204020B112
:101B7000024804602046FFF7A7FF10BD143C014057
:101B8000F8B502460B460025002400200021DCE0C9
:101B9000012606FA01F51E6806EA0504AC4273D177
:101BA0005E68022E02D05E68122E13D1CF0802F1B9
:101BB000200656F827004E07F70E0F26BE40B0430A
:101BC0004F07FF0E1E69BE403043CF0802F12006CA
:101BD00046F8270010684F000326BE40B0431E7928
:101BE00006F003064F00BE40304310605E68012ED1
:101BF00008D05E68022E05D05E68112E02D05E68A5
:101C0000122E13D190684F000326BE40B0434F0000
:101C1000DE68BE4030439060506801268E40B0437D
:101C20001E79C6F300168E4030435060D0684F00D6
:101C30000326BE40B0434F009E68BE403043D06094
:101C40005E6806F08056B6F1805F7DD100BF002649
:101C50000096404E366846F480463E4F3E603E4613
:101C6000366806F48046009600BF00BF3A4E8F08E3
:101C700056F827008E07370F0F26BE40B043374E69
:101C8000B24202D1002624E05EE0354EB24201D1DC
:101C900001261EE0334EB24201D1022619E0324E37
:101CA000B24201D1032614E0304EB24201D10426E3
:101CB0000FE02F4EB24201D105260AE02D4EB2426E
:101CC00001D1062605E02C4EB24201D1072600E0E4
:101CD00008268F073F0FBE4030431F4E8F0846F83F
:101CE0002700264E3068A0435E6806F48036B6F5BD
:101CF000803F00D12043214E3060361D3068A04324
:101D00005E6806F40036B6F5003F00D120431B4E56
:101D1000361D3060361D3068A0435E6806F48016BC
:101D2000B6F5801F00D12043144E08363060361DB2
:101D30003068A0435E6806F40016B6F5001F00D1B7
:101D400020430E4E0C363060491C1029FFF420AFA2
:101D5000F8BD00004438024008380140000002404D
:101D60000004024000080240000C02400010024043
:101D70000014024000180240001C0240003C0140D8
:101D8000024613690B400BB1012000E000207047B0
:101D900042694A40426170470AB1816101E00B0427
:101DA00083617047014800687047000070000020A0
:101DB00001464AF6AA200A68106000207047000019
:101DC00002480068401C014908607047700000200C
:101DD00010B50D48006840F400700B4908600846D3
:101DE000006840F4806008600846006840F4807035
:101DF0000860032000F094F8002000F007F800F0DD
:101E000019F8002010BD0000003C024070B50446E7
:101E1000074800684FF47A71B0FBF1F5284601F0ED
:101E2000E7F900222146501E00F03CF8002070BD6A
:101E30007400002010B5032000F072F80022114653
:101E40006FF00B0000F02EF8002211466FF00A0030
:101E500000F028F8002211466FF0090000F022F887
:101E600000221146501F00F01DF800221146101FDD
:101E700000F018F800221146901E00F013F800221E
:101E80001146501E00F00EF810BD00BF00F01F02FA
:101E9000012191404209920002F1E022C2F80011B2
:101EA00000BF70472DE9F05F80460D4616460027BB
:101EB00003F0E6FC074639462A46334601F00700A0
:101EC000C0F1070ABAF1040F02D94FF0040A01E089
:101ED000C0F1070AD14600F1040ABAF1070F02D295
:101EE0004FF0000A01E0A0F1030AD4464FF0010AC6
:101EF0000AFA09FAAAF1010A0AEA020A0AFA0CFA2B
:101F00004FF0010B0BFA0CFBABF1010B0BEA030BCF
:101F10004AEA0B042146404603F0BAFCBDE8F09FB4
:101F200000BF00F00702064B19684FF6FF03194087
:101F3000044B0B4343EA0221014B196000BF704779
:101F40000CED00E00000FA05F8B504460025002677
:101F5000207800F0010020B9207800F00400042867
:101F60002FD100205B498866FFF71CFF054606E07D
:101F7000FFF718FF401B022801D90320F8BD56487F
:101F80000068C0F3C0600028F2D160688101207A47
:101F900041EA007050498431086001204D4988664B
:101FA000FFF700FF054606E0FFF7FCFE401B022896
:101FB00001D90320E2E748480068C0F3C060002868
:101FC000F2D0207800F0020002287DD100BF00206E
:101FD000009041484030006840F080503E49403118
:101FE00008600846006800F08050009000BF00BF05
:101FF0003A48006840F4807038490860FFF7D2FE24
:10200000054606E0FFF7CEFE401B022801D903205B
:10201000B4E73248006800F480700028F2D02E48FF
:102020007030006800F440764EB3A08900F4407030
:10203000B04224D028487030006820F44076012057
:102040002749086000200860234870300660006857
:1020500000F0010098B1FFF7A5FE054608E0FFF784
:10206000A1FE401B41F28831884201D9032085E757
:10207000194870300068C0F340000028EFD000BF5E
:10208000A08900F44070B0F5407F0CD112480830B0
:10209000006820F4F810134AE168114008430E4923
:1020A0000831086007E00C480830006820F4F81098
:1020B000094908310860084870300068A189C1F3F7
:1020C0000B010843044900E002E07031086000BFE2
:1020D000002053E7000047420038024000700040F3
:1020E000400E4742FFFCFF0F70B504460D460CB989
:1020F000012070BD5848006800F00F00A84209D2C6
:1021000055490D700846006800F00F00A84201D044
:102110000120EEE7207800F0020002281DD120788F
:1021200000F00400042805D14C48006840F4E05059
:102130004A490860207800F00800082805D147487F
:10214000006840F46040454908604448006820F059
:10215000F000A168084341490860207800F00100C0
:10216000A8B36068012807D13C4808380068C0F36C
:102170004040B8B90120BCE76068022802D060681E
:10218000032807D1354808380068C0F3406048B9D3
:102190000120AEE7314808380068C0F3400008B9B4
:1021A0000120A6E72D48006820F00300616808437D
:1021B0002A490860FFF7F6FD064609E0FFF7F2FD41
:1021C000801B41F28831884202D9032091E707E061
:1021D0002248006800F00C006168B0EB810FEDD17F
:1021E0001D48006800F00F00A84209D91A490D7077
:1021F0000846006800F00F00A84201D0012078E7EF
:10220000207800F00400042807D11448006820F466
:10221000E050E168084311490860207800F00800A8
:10222000082808D10D48006820F46040216940EA80
:10223000C1000A49086000F03DF808490968C1F387
:102240000311074A515CC840064908600020FFF7A7
:10225000DDFD00204DE70000003C02400838024050
:10226000643A0108740000200148006870470000CB
:102270007400002000B5FFF7F7FF04490968C1F3B7
:102280008221034A515CC84000BD0000083802406A
:10229000743A010800B5FFF7E7FF04490968C1F384
:1022A0004231034A515CC84000BD0000083802407A
:1022B000743A01082DE9F047002400250026A146C4
:1022C0002548006800F00C0020B1042805D008283B
:1022D0003AD105E0DFF8849039E0DFF8849036E009
:1022E0001D48001F006800F03F041B48001F0068E5
:1022F00000F4800078B11A481749091F0968C1F332
:102300008811A0FB01700146224600233846FDF7E4
:1023100057FF05460EE011480F49091F0968C1F330
:102320008811A0FB01700146224600233846FDF7C4
:1023300047FF05460848001F0068C0F30140401CE5
:102340004600B5FBF6F902E0DFF8109000BF00BFD1
:102350004846BDE8F0870000083802400024F40039
:1023600000127A0070B586B006460C46154646BB8C
:1023700000BF002000902848006840F00100264976
:1023800008600846006800F00100009000BF00BF30
:1023900088150190022002900320049000200390F1
:1023A000059001A91D48FFF7EBFB1B482838006882
:1023B00020F0EC6044EA0501084317492839086019
:1023C00027E000BF002000901348006840F00400A0
:1023D000114908600846006800F00400009000BF42
:1023E00000BF4815019002200290032004900020B5
:1023F0000390059001A90A48FFF7C2FB0648283858
:10240000006820F0784044EAC501084302492839B1
:10241000086006B070BD0000303802400000024085
:102420000008024038B504460CB9012038BD2078B8
:1024300000F00100002874D0F848006800F00C009B
:1024400004280DD0F548006800F00C00082813D1CE
:10245000F248001F006800F48000B0F5800F0BD137
:10246000EE4808380068C0F34040002859D0606842
:10247000002856D10120D9E700BF6068B0F5803F41
:1024800008D1E6480838006840F48030E34908394C
:1024900008601EE06068B0F5A02F0DD1DF48083855
:1024A000006840F48020DD4908390860084600686B
:1024B00040F4803008600CE0D8480838006820F408
:1024C0008030D649083908600846006820F480202A
:1024D000086000BF606890B1FFF764FC054606E045
:1024E000FFF760FC401B642801D903209EE7CB481E
:1024F00008380068C0F340400028F1D011E0FFF731
:1025000051FC054606E0FFF74DFC401B642801D94D
:1025100003208BE7C14808380068C0F3404000281A
:10252000F1D1207800F0020002285FD1BB4800689A
:1025300000F00C0058B1B948006800F00C00082801
:102540001CD1B648001F006800F48000B0B9B34841
:1025500008380068C0F3400020B1E068012801D0CD
:10256000012063E7AD480838006820F0F8002169D1
:1025700040EAC100A9490839086037E0E06800B3C3
:102580000120A7490860FFF70DFC054606E0FFF7AC
:1025900009FC401B022801D9032047E79F4808385F
:1025A0000068C0F340000028F1D09C48083800685B
:1025B00020F0F800216940EAC10098490839086014
:1025C00014E0002096490860FFF7ECFB054606E0A2
:1025D000FFF7E8FB401B022801D9032026E78F48BC
:1025E00008380068C0F340000028F1D1207800F0DE
:1025F000080008282CD16069A8B101208949086029
:10260000FFF7D0FB054606E0FFF7CCFB401B022896
:1026100001D903200AE781486C300068C0F340000C
:102620000028F1D014E000207E490860FFF7BAFBD3
:10263000054606E0FFF7B6FB401B022801D9032040
:10264000F4E676486C300068C0F340000028F1D111
:10265000207800F0040004287FD100BF0020009003
:102660006E483830006840F080506C49383108605E
:102670000846006800F08050009000BF00BF6A4824
:10268000006840F4807068490860FFF78BFB0546DE
:1026900006E0FFF787FB401B022801D90320C5E6AF
:1026A0006148006800F480700028F2D000BFA06884
:1026B000012808D159486830006840F001005749A6
:1026C000683108601DE0A06805280DD153486830C6
:1026D000006840F00400514968310860084600680D
:1026E00040F0010008600CE04C486830006820F0C1
:1026F00001004A49683108600846006820F004007B
:10270000086000BFA068A0B1FFF74CFB054608E0D9
:10271000FFF748FB401B41F28831884201D9032072
:1027200084E63E4868300068C0F340000028EFD0DF
:1027300013E0FFF737FB054608E0FFF733FB401BCC
:1027400041F28831884201D903206FE6334868306E
:102750000068C0F340000028EFD1A069B8B32F484B
:10276000006800F00C00082860D0A06902283ED163
:1027700000202B490866FFF715FB054606E0FFF72A
:1027800011FB401B022801D903204FE623480838DB
:102790000068C0F340600028F1D1D4E90701084384
:1027A000616A40EA81110122A06AC2EB500041EA4D
:1027B00000412C20005D41EA00601849091F0860B3
:1027C000012017490866FFF7EDFA054607E02FE0FC
:1027D000FFF7E8FA401B022801D9032026E60F483C
:1027E00008380068C0F340600028F1D020E00020E5
:1027F0000B490866FFF7D6FA054606E0FFF7D2FA5E
:10280000401B022801D9032010E60448083800685C
:10281000C0F340600028F1D10AE007E00838024028
:1028200000004742800E4742007000400120FDE555
:102830000020FBE502460023106800F1500303EB83
:1028400081031868704710B50023046804F1500331
:1028500003EB81031A6010BD70B505460B461646A2
:102860000024286840680E4900EA0104200CD87052
:10287000C4F30420587004F03F009870C4F3423051
:1028800018705EB9D87803F018F8D870587803F04B
:1028900014F85870987803F010F89870002070BD04
:1028A0003FFFFF0070B504460B4616460025206822
:1028B000806A586020680069C0F30E009860206844
:1028C00000680F4900EA0105C5F305401870C5F31B
:1028D0000620587005F07F00987005F48000000C09
:1028E000D8705EB9187802F0E8FF1870587802F0D6
:1028F000E4FF5870987802F0E0FF9870002070BDF7
:102900007F7F7F0010B504460CB9012010BD607FA9
:1029100020B900202077204600F060F80220607780
:1029200000BFCA202168486253202168486200BF66
:10293000204602F0DAFF40B100BFFF202168486264
:1029400000BF042060770120E0E72068806822490A
:10295000084021688860216960680843616908430C
:10296000216889680843216888602168E0680861F7
:1029700020680169208941EA0040216808612068D7
:10298000C06820F080002168C8602068806800F07E
:10299000200060B9204600F049F940B100BFFF2097
:1029A0002168486200BF042060770120AEE72068FC
:1029B000006C20F48020216808642068006CA16904
:1029C00008432168086400BFFF202168486200BFF7
:1029D00001206077002099E7BFFF8FFF034A01685D
:1029E000914202D10121024A116070470028004043
:1029F0003C0E47422DE9F04104460D46164600279D
:102A000000BF207F012802D10220BDE8F081012013
:102A1000207700BF022060774EB9687800F0100080
:102A2000102804D1687800F0EF000A30687086B989
:102A3000E87802F04DFF0304687802F049FF43EAAA
:102A40000023A87802F044FF0343287843EA403784
:102A500009E0E8780004697840EA0120A978084391
:102A6000297840EA413700BFCA20216848625320D4
:102A70002168486200BF204602F037FF60B100BF06
:102A8000FF202168486200BF0420607700BF00205B
:102A9000207700BF0120B8E7164838402168486019
:102AA0002068C06820F080002168C86020688068C5
:102AB00000F0200080B9204600F0B8F860B100BFF7
:102AC000FF202168486200BF0420607700BF00201B
:102AD000207700BF012098E700BFFF2021684862EF
:102AE00000BF0120607700BF0020207700BF00BF3B
:102AF0008BE700003FFFFF002DE9F04104460D4643
:102B00001646002700BF207F012802D10220BDE821
:102B1000F0810120207700BF02206077CEB92068C5
:102B2000806800F0400000B102E00020E87000BFC3
:102B3000287802F0CDFE0304687802F0C9FE43EA6B
:102B40000023A87802F0C4FE0343E87843EA004774
:102B500016E02068806800F0400020B1287802F07C
:102B6000ACFE074602E00020E87000BF28780004B1
:102B7000697840EA0120A9780843E97840EA0147EA
:102B800000BFCA202168486253202168486200BF04
:102B9000204602F0AAFE60B100BFFF202168486213
:102BA00000BF0420607700BF0020207700BF012015
:102BB000ADE71D483840216808602068806820F42F
:102BC000802021688860D5E903010843216889686D
:102BD0000843216888602068C06820F08000216870
:102BE000C8602068806800F0200080B9204600F0AE
:102BF0001DF860B100BFFF202168486200BF0420BB
:102C0000607700BF0020207700BF01207FE700BF72
:102C1000FF202168486200BF0120607700BF0020CC
:102C2000207700BF00BF72E77F7F7F0070B504464A
:102C300000252068C06820F0A0002168C860FFF768
:102C4000B1F8054607E0FFF7ADF8401BB0F57A7F15
:102C500001D9032070BD2068C06800F02000002862
:102C6000F1D00020F6E710B504460CB9012010BDE4
:102C7000606A00B900BF0021A16294F8510028B930
:102C8000002084F85000204600F034F8022084F838
:102C900051002068006820F0400021680860D4E9F5
:102CA00001010843E1680843216908436169084359
:102CB000218B01F400710843E1690843216A08434C
:102CC000A16A0843216808600421A06901EA104054
:102CD000616A0843216848602068C06920F4006088
:102CE0002168C86100206065012084F8510000203F
:102CF000BDE7000010B586B004462549206888422B
:102D00001ED100BF002000902248006840F480508F
:102D1000204908600846006800F48050009000BF19
:102D200000BF382001900220029000200390032071
:102D300004900520059001A91748FEF721FF24E023
:102D400016492068884220D100BF00200090114819
:102D5000001F006840F480400E49091F08600846C3
:102D6000006800F48040009000BF00BF4FF4604056
:102D7000019002200290002003900320049005207F
:102D8000059001A90448FEF7FBFE06B010BD000047
:102D90000030014044380240000402400038004046
:102DA0002DE9F84304460D4617461E464FF000082D
:102DB000C14600BF94F85000012802D10220BDE8AE
:102DC000F883012084F8500000BFFEF7EBFF804637
:102DD00094F85100012802D04FF00209A9E005B192
:102DE00017B94FF00109A4E0032084F85100002036
:102DF00060652563A786E786A063A087E087606497
:102E00002064A068B0F5004F05D12068006840F448
:102E10008040216808602068006800F04000402879
:102E200005D02068006840F0400021680860E06834
:102E3000B0F5006F2AD1606810B1E08E012806D18C
:102E400028882168C860AD1CE08E401EE08619E02D
:102E50002068806800F00200022807D128882168D5
:102E6000C860AD1CE08E401EE0860BE03EB1701CD9
:102E700040B1FEF797FFA0EB0800B04202D34FF03D
:102E8000030956E0E08E0028E2D129E0606810B125
:102E9000E08E012806D12878216808736D1CE08E29
:102EA000401EE08619E02068806800F002000228D9
:102EB00007D12878216808736D1CE08E401EE086DB
:102EC0000BE03EB1701C40B1FEF76CFFA0EB0800B8
:102ED000B04202D34FF003092BE0E08E0028E2D18C
:102EE0003346012202212046CDF8008002F02EFE5A
:102EF00010B14FF003091CE042463146204602F073
:102F000011FE20B14FF001092020606511E0A0689A
:102F100050B900BF002000902068C0680090206871
:102F20008068009000BF00BF606D08B14FF00109DC
:102F300000BF012084F8510000BF002084F8500039
:102F400000BF48463BE72DE9FE4F04460D461646B6
:102F50001F46DDF830804FF0000A002002908146C5
:102F60004FF0010B019000BF94F85000012802D1EE
:102F70000220BDE8FE8F012084F8500000BFFEF75C
:102F800011FF814694F851A060680290BAF1010FD8
:102F90000BD00298B0F5827F04D1A06810B9BAF1C5
:102FA000040F02D002200190D2E00DB106B117B992
:102FB00001200190CCE094F85100012802D10520B5
:102FC00084F8510000206065A663E787A787256322
:102FD000E786A786206460642068006800F04000EF
:102FE000402805D02068006840F040002168086053
:102FF000E068B0F5006F43D1606810B1E08E012841
:1030000006D128882168C860AD1CE08E401EE0868D
:103010002FE0BBF1000F10D0E08E70B12068806807
:1030200000F00200022808D128882168C860AD1C81
:10303000E08E401EE0864FF0000BE08F68B1206804
:10304000806800F0010040B12068C0683080B61C84
:10305000E08F401EE0874FF0010B08F1010040B106
:10306000FEF7A0FEA0EB0900404502D3032001902B
:103070006EE0E08E0028CCD1E08F0028C9D142E07C
:10308000606810B1E08E012806D1287821680873A5
:103090006D1CE08E401EE0862FE0BBF1000F10D0CB
:1030A000E08E70B12068806800F00200022808D12C
:1030B00015F8010B21680873E08E401EE0864FF082
:1030C000000BE08F68B12068806800F0010040B11B
:1030D0002068C06806F8010BE08F401EE0874FF0C3
:1030E000010B08F1010040B1FEF75CFEA0EB090006
:1030F000404502D3032001902AE0E08E0028CCD185
:10310000E08F0028C9D14346012202212046CDF894
:10311000009002F01BFD10B10320019018E04A4618
:103120004146204602F0FEFC20B101200190202003
:1031300060650DE0A06850B900BF002000902068D5
:10314000C068009020688068009000BF00BF00BF8A
:10315000012084F8510000BF002084F8500000BF17
:10316000019806E770B504460E4615460CB90120D5
:1031700070BD94F8490028B9002084F84800204622
:1031800000F01CF804F108012068FDF763FE3146E9
:10319000A2682068FDF78CFE2946236BD4E9010262
:1031A000FDF734FEA168206850F8210040F00100CE
:1031B000A268216841F822000020D9E710B5044632
:1031C000FEF740FC10BD042808D14FF0E02109694A
:1031D00041F004014FF0E022116107E04FF0E021DF
:1031E000096921F004014FF0E02211617047704736
:1031F00070B504462546681EB0F1807F01D30120DA
:103200000FE0681E4FF0E02148610F214FF0FF30C2
:1032100002F03EFB00204FF0E021886107200861AA
:10322000002070BD10B5FFF7E2FF10BD704770477A
:10323000024600BF92F83800012801D102207047F1
:10324000012082F8380000BF022082F8390010689F
:10325000406820F0700013685860106840680B6880
:103260001843136858601068806820F08000136865
:103270009860106880684B68184313689860012054
:1032800082F8390000BF002082F8380000BF00BF7C
:10329000D5E710B504460CB9012010BD94F83900EB
:1032A00028B9002084F83800204600F00DF80220EC
:1032B00084F83900211D206802F0AEFD012084F859
:1032C00039000020E9E7000038B504463749206896
:1032D000884221D100BF002000903548006840F0AE
:1032E0000400334908600846006800F004000090BC
:1032F00000BF00BF002211461E20FEF7D3FD1E2096
:10330000FEF7C3FD204600F061F800284DD0A9214A
:1033100028A003F071FB48E02A492068884220D1A8
:1033200000BF002000902248006840F008002049BB
:1033300008600846006800F00800009000BF00BF69
:10334000002211463220FEF7ADFD3220FEF79DFD32
:10335000204600F03BF840B3BB2116A003F04CFB25
:1033600023E01949206888421FD100BF0020009047
:103370000F48006840F020000D49086008460068CA
:1033800000F02000009000BF00BF0022114637204F
:10339000FEF788FD3720FEF778FD204600F016F88E
:1033A00018B1CD2103A003F027FB38BD0008004071
:1033B000403802402E2E2F5372632F74696D2E6396
:1033C00000000000000C00400014004001460868A6
:1033D000C06840F001000A68D0600868006840F0EA
:1033E00001000A681060002070472DE9F041044692
:1033F0000D46002600BF94F83800012802D10220B3
:10340000BDE8F081012084F8380000BF022084F874
:1034100039002068866826F0770626F47F46206803
:103420008660286850283BD00CDC202860D004DC63
:10343000002853D0102865D155E030285DD04028B1
:1034400060D141E0602835D070280DD0B0F5805FA4
:1034500003D0B0F5005F55D115E02068806820F0FA
:103460000700216888604EE0D5E902136A68206889
:1034700002F052FD2068866826F0770646F077064F
:10348000206886603FE0D5E902136A68206802F090
:1034900043FD2068806840F480402168886032E005
:1034A000EA686968206802F02DFE5021206802F069
:1034B0003FFD28E0EA686968206802F038FE602174
:1034C000206802F035FD1EE0EA686968206802F0B5
:1034D00019FE4021206802F02BFD14E00021206835
:1034E00002F026FD0FE01021206802F021FD0AE025
:1034F0002021206802F01CFD05E03021206802F048
:1035000017FD00E000BF00BF012084F8390000BFB4
:10351000002084F8380000BF00BF71E7704710B585
:10352000044620680069C0F34000D8B12068C06834
:10353000C0F34000B0B16FF00200216808610120C3
:1035400020762068806900F0030018B12046FFF75C
:10355000E5FF05E0204600F0C7F8204600F064F9DA
:103560000020207620680069C0F38000D8B1206870
:10357000C068C0F38000B0B16FF00400216808613A
:10358000022020762068806900F4407018B120463F
:10359000FFF7C4FF05E0204600F0A6F8204600F043
:1035A00043F90020207620680069C0F3C000D8B13C
:1035B0002068C068C0F3C000B0B16FF00800216897
:1035C0000861042020762068C06900F0030018B16B
:1035D0002046FFF7A3FF05E0204600F085F82046CF
:1035E00000F022F90020207620680069C0F3001066
:1035F000D8B12068C068C0F30010B0B16FF01000FF
:1036000021680861082020762068C06900F44070B5
:1036100018B12046FFF782FF05E0204600F064F86D
:10362000204600F001F9002020762068006900F0B3
:10363000010058B12068C06800F0010030B16FF09F
:10364000010021680861204600F05AF920680069ED
:10365000C0F3C01058B12068C068C0F3C01030B1CA
:103660006FF08000216808612046FFF7DFFD2068C9
:103670000069C0F3801058B12068C068C0F38010A2
:1036800030B16FF0400021680861204600F0CCF9AD
:1036900020680069C0F3401058B12068C068C0F3CA
:1036A000401030B16FF02000216808612046FFF71C
:1036B000BEFD10BD10B586B0044609492068884299
:1036C0000CD140150190022002900020039004903C
:1036D0000220059001A90348FEF752FA06B010BD7A
:1036E0000008004000040240704770B504460D46D3
:1036F000164600BF94F83800012801D1022070BDA1
:10370000012084F8380000BF022084F8390036B167
:10371000042E1BD0082E31D00C2E5ED145E0294658
:10372000206802F00FFC2068806940F008002168E2
:1037300088612068806920F0040021688861206821
:103740008069296908432168886147E02946206823
:1037500002F030FC2068806940F4006021688861D4
:103760002068806920F48060216888612068806911
:10377000296940EA0120216888612FE029462068F4
:1037800002F054FC2068C06940F008002168C8615C
:103790002068C06920F004002168C8612068C06901
:1037A000296908432168C86118E02946206802F0A9
:1037B00079FC2068C06940F400602168C861206815
:1037C000C06920F480602168C8612068C0692969E7
:1037D00040EA01202168C86100E000BF00BF01206D
:1037E00084F8390000BF002084F8380000BF00BF13
:1037F00085E710B504460CB9012010BD94F83900D6
:1038000028B9002084F83800204600F00CF8022087
:1038100084F83900211D206802F0FEFA012084F8A6
:1038200039000020E9E770477047000030B50446D2
:103830000D4601222946206802F060FB0C492068F1
:10384000884203D00B492068884201D1012000E062
:10385000002028B12068406C40F400402168486492
:103860002068006840F0010021680860002030BD39
:10387000000001400004014030B504460D4600221E
:103880002946206802F03AFB1B492068884203D091
:103890001A492068884201D1012000E0002090B13F
:1038A00000BF2068006A41F21111084050B9206839
:1038B000006A8910084028B92068406C20F4004054
:1038C0002168486400BF00BF2068006A41F21111FE
:1038D000084050B92068006A8910084028B920685B
:1038E000006820F001002168086000BF012084F812
:1038F0003900002030BD00000000014000040140FC
:10390000424A0168914210D141490978491C404A14
:10391000117011460978092902DD0021117000E0BB
:1039200000BF01213B4AD1716FE03B4A01689142DF
:1039300039D13A490978491C384A11701146097839
:10394000092902DD0021117000E000BF3349097828
:1039500031B101290CD002290BD0052907D100E093
:1039600000BF01212B4A91719172517300BF00BFBA
:1039700000BF0121274A11725172D170D1721173A7
:103980001146C97B002904DD1146C97B491ED1734C
:1039900000E000BF1F49097C491C1E4A1174012127
:1039A000917000BF31E01E4A016891422DD11D493E
:1039B0000978491C1B4A117011460978632902DDF8
:1039C0000021117000E000BF164909780A2291FB1E
:1039D000F2F302FB131111B901210E4A11711149C1
:1039E0000978052291FBF2F302FB131111B90121B1
:1039F000084A51710B490978642291FBF2F302FBEA
:103A0000131111B90121034AD17170470008004018
:103A100080000020D4150020000C00407F00002012
:103A20000014004081000020704770472DE9F047E6
:103A30000446206805682068C668206847694FF01A
:103A40000008C14605F00F08B8F1000F0AD105F0D3
:103A5000200038B106F0200020B1204602F0B0FB73
:103A6000BDE8F087B8F1000F6DD007F0010018B97C
:103A700006F49070002866D005F0010030B106F41D
:103A8000807018B1E06B40F00100E06305F00400C5
:103A900030B107F0010018B1E06B40F00200E063C4
:103AA00005F0020030B107F0010018B1E06B40F002
:103AB0000400E06305F0080030B107F0010018B120
:103AC000E06B40F00800E063E06B68B305F02000B5
:103AD00028B106F0200010B1204602F071FB2068EA
:103AE0004069C0F38019E06B00F0080010B9B9F12B
:103AF000000F22D0204602F043FB2068406900F00E
:103B00004000B0B12068406920F040002168486161
:103B1000606B50B11748616B0865606BFDF7E8FD9D
:103B200010B1606B016D88470CE02046FFF77DFF08
:103B300008E02046FFF779FF04E02046FFF775FF15
:103B40000020E0638CE705F0800030B106F08000D3
:103B500018B1204602F036FD82E705F0400030B192
:103B600006F0400018B1204602F01AFB78E700BFCB
:103B700076E700006D61000810B504460CB901201D
:103B800010BDA06900B100E000BF94F8390028B969
:103B9000002084F83800204600F028F8242084F81B
:103BA00039002068C06820F400502168C8602046B1
:103BB00002F054FB2068006920F4904021680861FD
:103BC0002068406920F02A00216848612068C068A8
:103BD00040F400502168C8600020E063202084F891
:103BE000390084F83A000020CAE7000010B586B01A
:103BF00004469B492068884227D100BF00200090DE
:103C00009848006840F4002096490860084600681B
:103C100000F40020009000BF00BF4FF4406001900E
:103C200002200290012003900320049008200590B8
:103C300001A98D48FDF7A4FF002202213420FEF7E0
:103C400031F93420FEF721F907E1884920688842DC
:103C500069D100BF002000908248006840F4003025
:103C6000804908600846006800F40030009000BFFA
:103C700000BF0C200190022002900120039003203D
:103C800004900720059001A97948FDF779FF79484C
:103C9000794908604FF000604860002176488160F3
:103CA000C1604FF4806101610021416181614FF485
:103CB0008071C161002101624162FDF74DFE18B1C2
:103CC000E2216EA002F098FE00BF6B48606384633F
:103CD00000BF684818306D4908604FF000604860C8
:103CE00040216A4881600021C1604FF48061016118
:103CF000002141618161C16101624162FDF72CFED9
:103D000018B1F4215DA002F077FE00BF5F48206388
:103D1000846300BF002204212620FEF7C3F826207A
:103D2000FEF7B3F899E05A492068884227D100BFCE
:103D3000002000904B48006840F48020494908600A
:103D40000846006800F48020009000BF00BF4FF4D8
:103D50004060019002200290012003900320049013
:103D60000720059001A94B48FDF70AFF0022032117
:103D70002720FEF797F82720FEF787F86DE04649E1
:103D80002068884269D100BF002000903548001D9E
:103D9000006840F020003349091D086008460068AB
:103DA00000F02000009000BF00BFC0200190022062
:103DB000029001200390032004900820059001A99F
:103DC0002948FDF7DDFE3548354908604FF0206091
:103DD0004860002132488160C1604FF48061016118
:103DE000002141618161C16101624162FDF7B4FD61
:103DF00020B140F23B1121A002F0FEFD00BF284897
:103E00006063846300BF25486030264908604FF036
:103E1000206048604021234881600021C1604FF448
:103E200080610161002141618161C1610162416282
:103E3000FDF792FD20B140F24D1110A002F0DCFD23
:103E400000BF18482063846300BF0022114647204A
:103E5000FEF728F84720FEF718F806B010BD00005E
:103E6000004C00404038024000080240004400403E
:103E70000000024088600240601200202E2E2F5366
:103E800072632F75736172742E630000C01200207C
:103E90000048004000040240001401404064024019
:103EA000201300208013002010B5034693F83A0039
:103EB000202829D101B10AB9012010BD00BF93F813
:103EC0003800012801D10220F7E7012083F83800EB
:103ED00000BF99629A85DA850020D863222083F892
:103EE0003A0000BF002083F8380000BF186840691E
:103EF00040F001001C6860611868C06840F4907070
:103F00001C68E0600020D8E70220D6E770B50446C0
:103F10006B492068884219D101226A496A48FFF733
:103F2000C3FF684801786948694A12888154684823
:103F30000088401C6649088008460088642801DB28
:103F4000002008805F480078624908706249206854
:103F500088427DD1614800786149624A128888545C
:103F600060480088401C5F49088008460088642833
:103F700001DB002008805C4800785C280DD15748A0
:103F80000078612809D15948007830B1642154483B
:103F900002F010FF002053490880534800785C2845
:103FA00014D14E480078622810D15048007868B18A
:103FB0004C480088821E4A494D48FCF732F90120DE
:103FC0004C4908706421464802F0F4FE43480078EA
:103FD000202835D1434800881038002803D44148B0
:103FE0000088103802E03F4800885430C1B23C4895
:103FF000405C102823D13B4A128891420BDA002002
:1040000006E00A18364B9A5C3B4B1A54421CD0B25D
:104010001028F6DD0FE000200BE00A18642392FB65
:10402000F3F503FB15222E4B9A5C334B1A54421CBA
:10403000D0B21028F1DD0122304B1A7000BF00BF52
:104040002648007828490870012224492C4800E0BD
:1040500001E0FFF729FF2B492068884215D12A4843
:1040600000782A492A4A1288885429480088401C26
:104070002749088008460088782801DB002008804E
:10408000012221492348FFF70FFF23492068884276
:1040900015D1224801782248224A128881542148A9
:1040A0000088401C1F490880084600882D2801DB35
:1040B00000200880012219491B48FFF7F5FE70BD5A
:1040C000001401407800002020120020E515002097
:1040D000980000209A000020004400407900002051
:1040E000AD1600209C0000207A000020A3000020D4
:1040F00050180020A40000202C180020A20000204E
:10410000A0110020004800407B000020751700200F
:104110009E000020E0110020004C00407C000020A8
:10412000ED170020A00000206011002010B503460C
:1041300093F83900202823D101B10AB9012010BD1C
:1041400000BF93F83800012801D10220F7E70120D1
:1041500083F8380000BF19629A84DA840020D8639B
:10416000212083F8390000BF002083F8380000BF09
:104170001868C06840F080001C68E0600020DEE73E
:104180000220DCE7704700BFFEE7000010B5002208
:1041900001210C48FDF700FE002202210948FDF72D
:1041A000FBFD142000F010F8012211460548FDF730
:1041B000F3FD142000F008F8002201210148FDF76A
:1041C000EBFD10BD00040240002101E04A1C91B249
:1041D0008142FBDB7047000010B5002201210C4832
:1041E000FDF7DAFD012202210948FDF7D5FD142073
:1041F000FFF7EAFF012211460548FDF7CDFD142027
:10420000FFF7E2FF002201210148FDF7C5FD10BDC7
:104210000004024070B50546002401220221154821
:10422000FDF7BAFD00261AE0002201211148FDF732
:10423000B3FD1420FFF7C8FF012211460D48FDF71A
:10424000ABFD6006040E02210A48FDF799FD08B196
:10425000601CC4B21420FFF7B7FF701CC6B2082E52
:10426000E2DB15B9FFF7B8FF01E0FFF78FFF20464B
:1042700070BD00000004024038B504460022012150
:104280001948FDF789FD0020009027E004F0800028
:1042900028B1012202211448FDF77EFD04E000222E
:1042A00002211148FDF778FD1420FFF78DFF012250
:1042B00011460D48FDF770FD1420FFF785FF002221
:1042C00001210948FDF768FD1420FFF77DFF600616
:1042D000040E9DF80000401CC0B200909DF8000044
:1042E0000828D3DB38BD00000004024010B50122CD
:1042F00002210C48FDF750FD012211460948FDF747
:104300004BFD2820FFF760FF002202210548FDF742
:1043100043FD2820FFF758FF002201210148FDF747
:104320003BFD10BD0004024010B5002202210C48E4
:10433000FDF732FD002201210948FDF72DFD28205F
:10434000FFF742FF012202210548FDF725FD01226A
:1043500011460348FDF720FD2820FFF735FF10BD6B
:104360000004024008B500200090012202211448F8
:10437000FDF712FD0A20FFF727FF01221146104822
:10438000FDF70AFD0A20FFF71FFF0CE0BDF8000053
:10439000401C80B20090BDF800001E2803DDFFF72E
:1043A000C3FF012008BD02210548FDF7E9FC0028F4
:1043B000ECD1002201210248FDF7EEFC0020F1E7DC
:1043C0000004024010B5002204210D48FDF7E4FC72
:1043D00000F077F8002202210948FDF7DDFC0F20EC
:1043E00000F010F8012204210548FDF7D5FC0F204C
:1043F00000F008F8002204210148FDF7CDFC10BDB3
:104400000010024010B504462046FCF7B5F910BD77
:1044100010B5002204210D48FDF7BEFC00F051F854
:10442000012202210948FDF7B7FC0F20FFF7EAFF40
:10443000012204210548FDF7AFFC0F20FFF7E2FF42
:10444000002204210148FDF7A7FC10BD0010024026
:1044500070B505460024012202211848FDF79CFC96
:1044600000F02EF800261AE0002204211348FDF780
:1044700093FC3220FFF7C6FF012204210F48FDF70D
:104480008BFC6006040E0A20FFF7BCFF02210B48DC
:10449000FDF776FC08B1601CC4B2701CC6B2082ED1
:1044A000E2DB012204210548FDF776FC15B9FFF790
:1044B000AFFF01E0FFF786FF204670BD001002400D
:1044C0007047704738B50446FFF7FBFF0022042110
:1044D0001A48FDF761FC0020009024E0002204212E
:1044E0001648FDF759FC04F0800028B10122022192
:1044F0001248FDF751FC04E0002202210F48FDF7AD
:104500004BFC0E20FFF77EFF012204210B48FDF734
:1045100043FC0E20FFF776FF6006040E9DF80000B6
:10452000401CC0B200909DF800000828D6DB002295
:1045300004210248FDF730FC38BD000000100240A5
:1045400010B5FFF7BEFF012202210C48FDF724FC45
:10455000012204210948FDF71FFC0E20FFF752FF3E
:10456000002202210548FDF717FC0E20FFF74AFF45
:10457000002204210148FDF70FFC10BD001002408D
:1045800010B5FFF79EFF002202210C48FDF704FC46
:10459000002204210948FDF7FFFB0E20FFF732FF40
:1045A000012204210548FDF7F7FB0E20FFF72AFF43
:1045B000012202210148FDF7EFFB10BD001002406F
:1045C00008B500200090002204211A48FDF7E4FB02
:1045D000012202211748FDF7DFFBFFF771FF0E20D4
:1045E000FFF710FF012204211248FDF7D5FB0E2032
:1045F000FFF708FF0DE0BDF80000401C80B20090FE
:10460000BDF80000B0F5967F03DDFFF7B9FF01208C
:1046100008BD02210748FDF7B3FB0028EBD10022BB
:1046200004210448FDF7B8FB0A20FFF7EBFE002049
:10463000EEE700000010024010B50248FDF7B8FB9D
:1046400010BD00007815002000B587B000BF002025
:1046500001902148006840F004001F4908600846A6
:10466000006800F00400019000BF00BF202002900D
:1046700001200390002004900120059002A9174812
:10468000FDF77EFA012220211448FDF785FB00BFCB
:10469000002001901048006840F001000E490860B9
:1046A0000846006800F00100019000BF00BF4FF411
:1046B000004002900120039000200490012005900A
:1046C00002A90748FDF75CFA00224FF400410448B4
:1046D000FDF762FB07B000BD303802400008024021
:1046E000000002402DE9FC4706460F4690469946D9
:1046F0000A9C0020ADF804008DF8060025462D1117
:104700002846FCF757FC8DF80400254605F00F05F8
:104710002846FCF74FFC8DF8050001A84B464246A1
:10472000394600903046FCF7AFFCBDE8FC8700003E
:1047300010B5002220210748FDF72EFB0A2000F0CB
:104740000BF8012220210348FDF726FB022000F090
:1047500003F810BD0008024008B50CE04FF4E15129
:10476000009104E0BDF80010491E89B20091BDF827
:1047700000100029F6DC011EA0F10102D0B2EDD13B
:1047800008BD000010B5FFF75FFFFFF7D1FFFF2066
:1047900002F028F9FF2002F029F9982002F026F90A
:1047A000062002F023F9BC2002F01CF9032002F0DD
:1047B0001DF90F2002F01AF9632002F017F96920A1
:1047C00002F014F9012002F011F9012002F00EF9B3
:1047D0001B2002F00BF9112002F008F9702002F002
:1047E00005F9732002F002F9FF2002F0FFF8FF2024
:1047F00002F0FCF8082002F0F9F8092002F0F6F8BF
:10480000052002F0F3F8002002F0F0F8EE2002F0AC
:10481000EDF8E22002F0EAF8012002F0E7F80020CB
:1048200002F0E4F8C12002F0E1F8BD2002F0DAF86D
:10483000012002F0DBF8232002F0D8F8452002F036
:10484000D5F8672002F0D2F8012002F0CFF823203B
:1048500002F0CCF8452002F0C9F8672002F0C6F853
:10486000BE2002F0BFF8002002F0C0F8222002F0C3
:10487000BDF8272002F0BAF86A2002F0B7F8BC2091
:1048800002F0B4F8D82002F0B1F8922002F0AEF8AD
:10489000222002F0ABF8222002F0A8F8C72002F094
:1048A000A1F88F2002F0A2F8802002F09FF8ED20FE
:1048B00002F098F87F2002F099F80F2002F096F8A5
:1048C000C02002F08FF8C72002F090F80B2002F011
:1048D0008DF8022002F08AF8002002F087F800200C
:1048E00002F084F8882002F081F82C2002F07EF893
:1048F000502002F07BF8002002F078F8002002F04F
:1049000075F8002002F072F8002002F06FF8FF2026
:1049100002F06CF8FC2002F065F8042002F066F862
:10492000DF2002F05FF8002002F060F8002002F0C3
:104930005DF8002002F05AF8002002F057F800203D
:1049400002F054F8202002F051F8F32002F04AF867
:10495000742002F04BF8B42002F044F8002002F07A
:1049600045F8002002F042F8002002F03FF8F7205E
:1049700002F038F8812002F039F8B12002F032F864
:10498000002002F033F8102002F030F8142002F07A
:104990002DF8F12002F026F8292002F027F88A20CD
:1049A00002F024F8072002F021F8F22002F01AF8B1
:1049B000402002F01BF8D22002F018F8502002F03C
:1049C00015F8282002F012F8C12002F00BF8172089
:1049D00002F00CF8852002F009F8852002F006F8B4
:1049E000202002F003F8E02001F0FCFF002001F09D
:1049F000FDFF0C2001F0FAFF152001F0F7FF0D205C
:104A000001F0F4FF0F2001F0F1FF0C2001F0EEFFA8
:104A1000072001F0EBFF052001F0E8FF072001F07F
:104A2000E5FF0B2001F0E2FF102001F0DFFF102076
:104A300001F0DCFF0D2001F0D9FF172001F0D6FFB7
:104A40000F2001F0D3FF002001F0D0FFE12001F0A2
:104A5000C9FF002001F0CAFF0D2001F0C7FF15209B
:104A600001F0C4FF0E2001F0C1FF102001F0BEFFD5
:104A70000D2001F0BBFF082001F0B8FF062001F077
:104A8000B5FF072001F0B2FF0C2001F0AFFF1120AD
:104A900001F0ACFF112001F0A9FF0E2001F0A6FFEC
:104AA000172001F0A3FF0F2001F0A0FF002001F06C
:104AB0009DFF352001F096FF002001F097FF362082
:104AC00001F090FFA02001F091FF3A2001F08AFF51
:104AD000552001F08BFF112001F084FF7820FFF7B3
:104AE0003BFE292001F07EFF0A20FFF735FE012260
:104AF000D1030348FDF750F90F2000F053F810BD23
:104B00000000024000B587B000BF0020019023489C
:104B1000006840F00400214908600846006800F081
:104B20000400019000BF00BF042002900120039008
:104B3000002004900320059002A91948FDF720F8F1
:104B4000002204211648FDF727F900BF002001903C
:104B50001248006840F020001049086008460068CC
:104B600000F02000019000BF00BF0820029001204B
:104B70000390002004900320059002A90848FCF748
:104B8000FFFF012208210648FDF706F90122042152
:104B90000348FDF701F907B000BD000030380240BE
:104BA0000008024070B5044640F2DF1340F255326F
:104BB0000021084600F06AF800250AE0002603E01C
:104BC00006480480701C86B2B6F5F07FF8DB681CDE
:104BD00085B240F256308542F0DB70BD00000260C5
:104BE0002DE9F04F06460F4614461D46A64203DA4D
:104BF000A01B1FFA80F902E0301B1FFA80F9AF42B8
:104C000003DAE81B1FFA80FA02E0781B1FFA80FA29
:104C1000681E83B2601E82B23946304600F036F814
:104C20004FF000080FE04FF0000B06E00C49099828
:104C300008800BF101001FFA80FBD345F6DB08F179
:104C400001001FFA80F8C845EDDB40F2DF1340F2A7
:104C500055320021084600F019F8BDE8F08F000039
:104C6000000002602DE9F84104460D4616461F4635
:104C7000DDF81C80E81983B2A01982B229462046CB
:104C8000CDF80080FFF7ACFFBDE8F8812DE9F043D7
:104C900004460D46944202DC2646174601E01646BD
:104CA00027469D4202DCA846994601E09846A9465F
:104CB0002A2001F097FE301201F098FEF0B201F0C8
:104CC00095FE381201F092FEF8B201F08FFE2B2013
:104CD00001F088FE4FEA282001F088FE08F0FF006E
:104CE00001F084FE4FEA292001F080FE09F0FF0068
:104CF00001F07CFE2C2001F075FEBDE8F08300B5CC
:104D000002460B462A2001F06DFE101201F06EFEE5
:104D1000D0B201F06BFE2B2001F064FE181201F0FE
:104D200065FED8B201F062FE2C2001F05BFE00BDF2
:104D30001FB51748174908604FF40030486000213C
:104D40001448816001210161816100210162C16219
:104D5000114981620021C1600121C161016300210B
:104D60004161FCF789FB18B14A210CA001F044FE17
:104D7000072000900120019000200290694605481C
:104D8000FCF7B0FA18B1542104A001F035FE1FBDA4
:104D900000200140B81000200100000F2E2E2F53DC
:104DA00072632F6164632E630000000010B5064833
:104DB000064908600846FCF76FFC18B1382104A0CA
:104DC00001F01AFE10BD00000030024084000020F7
:104DD0002E2E2F5372632F6372632E630000000028
:104DE00008B500BF002000902648006840F400107D
:104DF000244908600846006800F40010009000BFD5
:104E000000BF00BF002000900846006840F480000A
:104E100008600846006800F48000009000BF00BFF2
:104E2000002211461020FDF73DF81020FDF72DF867
:104E3000002211461120FDF735F81120FDF725F865
:104E4000002211463820FDF72DF83820FDF71DF817
:104E5000002211463920FDF725F83920FDF715F815
:104E6000002211463A20FDF71DF83A20FDF70DF813
:104E7000002211464520FDF715F84520FDF705F8FD
:104E800008BD00003038024000B587B04FF0204028
:104E900019490860194848600020886000211648B8
:104EA000C16001611021416100218161C161016224
:104EB00041624FF4805181620021C162016341630C
:104EC00081634164012000900F2001900220029034
:104ED00001200390102004901120059000200690DE
:104EE000002269460448FEF73DF918B1562104A096
:104EF00001F082FD07B000BD84150020040100A070
:104F00002E2E2F5372632F66736D632E6300000085
:104F100000B587B000BF002001906C48006840F0E9
:104F200010006A4908600846006800F0100001900F
:104F300000BF00BF00BF002001900846006840F09D
:104F4000040008600846006800F00400019000BFFB
:104F500000BF00BF002001900846006840F08000BC
:104F600008600846006800F08000019000BF00BFA4
:104F700000BF002001900846006840F00100086072
:104F80000846006800F00100019000BF00BF00BFAC
:104F9000002001900846006840F0020008600846C2
:104FA000006800F00200019000BF00BF00BF0020B9
:104FB00001900846006840F0080008600846006854
:104FC00000F00800019000BF00BF00220F21404800
:104FD000FCF7E2FE00222D213E48FCF7DDFE002218
:104FE00041F203113C48FCF7D7FE002243F248018E
:104FF0003A48FCF7D1FE00224FF418413848FCF73C
:10500000CBFE0F2002900120039000200490059019
:1050100002A92F48FCF7B4FD2D2002900120039037
:1050200000200490059002A92A48FCF7A9FD012060
:10503000029000200390049002A92948FCF7A0FDEB
:1050400041F203100290012003900020049005908B
:1050500002A92148FCF794FD43F248000290012088
:10506000039000200490059002A91C48FCF788FDDD
:105070004FF480700290022003900020049005906D
:10508000069002A91648FCF77BFD4FF418400290E9
:105090000120039000200490059002A91048FCF71D
:1050A0006FFD042002900F4803900020049002A995
:1050B0000A48FCF765FD002211460820FCF7F2FEC5
:1050C0000820FCF7E2FE07B000BD000030380240C7
:1050D000001002400008024000040240000C0240A0
:1050E000000002400000211010B51C481C49086057
:1050F000002048607F211A488160FF21C1600021A3
:10510000016141618161FDF7FDFB18B1422115A0EC
:1051100001F072FC00211248FDF78CFB43F2F221F2
:10512000884219D0012213490D48FDF7E5FC18B15A
:105130004A210CA001F060FC01220F490848FDF74C
:1051400059FC18B14F2107A001F056FC43F2F2229E
:1051500000210348FDF777FB10BD00000028004048
:10516000941400202E2E2F5372632F7274632E63BB
:1051700000000000B41400208C00002010B50F487F
:105180000F4908604FF48270486000210C4881602C
:10519000C160016141614FF4007181611821C161F9
:1051A00000210162416281620A21C162FDF75BFD5B
:1051B00018B1462103A001F01FFC10BD00300140D2
:1051C000C81400202E2E2F5372632F7370692E6324
:1051D0000000000010B51048104908604FF48270BC
:1051E000486000210D488160C160022101610121F8
:1051F0004161490281610821C1610021016241626E
:1052000081620A21C162FDF72EFD18B15C2104A064
:1052100001F0F2FB10BD0000003800402015002016
:105220002E2E2F5372632F7370692E6300000000BF
:1052300000B58DB025482649086042F2CF0048608D
:1052400000212348816040F2E731C1600021016103
:10525000FEF71FF818B142211EA001F0CDFB4FF45C
:105260008050099009A91A48FEF7BFF818B14821E3
:1052700018A001F0C1FB1648FEF7BBFA18B14D218A
:1052800014A001F0B9FB00200790089007A910486E
:10529000FDF7CEFF18B154210EA001F0ADFB602048
:1052A0000090642001900020029004900C22694636
:1052B0000748FEF71AFA18B15D2106A001F09CFB21
:1052C0000348FEF7F7F90DB000BD000000080040EC
:1052D000E01300202E2E2F5372632F74696D2E63FE
:1052E0000000000000B587B0164817490860532039
:1052F00048600021144881601449C16000210161A7
:10530000FDF7C7FF18B1702111A001F075FB4FF434
:105310008050039003A90C48FEF767F818B1762176
:105320000BA001F069FB00200190029001A9064842
:10533000FDF77EFF18B17D2105A001F05DFB07B0F0
:1053400000BD0000000C00401C1400203F420F0074
:105350002E2E2F5372632F74696D2E630000000090
:105360001CB50F480F4908605320486000210D48C4
:10537000816040F2E731C160FDF78BFF18B18C21ED
:1053800009A001F039FB0020009001906946054812
:10539000FDF74EFF18B1932103A001F02DFB1CBDBA
:1053A00000140040581400202E2E2F5372632F74C7
:1053B000696D2E630000000010B50C480C490860B0
:1053C0004FF416504860002109488160C1600161B6
:1053D0000C21416100218161C161FEF7CDFB18B153
:1053E000652104A001F008FB10BD0000004C004046
:1053F000601100202E2E2F5372632F75736172740B
:105400002E63000010B50C480C4908604FF4E130E1
:105410004860002109488160C16001610C2141613F
:1054200000218161C161FEF7A7FB18B1782104A0BA
:1054300001F0E2FA10BD000000440040A01100207D
:105440002E2E2F5372632F75736172742E630000BA
:1054500010B50C480C4908604FF416504860002104
:1054600009488160C16001610C21416100218161B5
:10547000C161FEF781FB18B18B2104A001F0BCFAD9
:1054800010BD000000480040E01100202E2E2F53D8
:1054900072632F75736172742E63000010B50C482F
:1054A0000C4908604FF4E1304860002109488160F0
:1054B000C16001610C21416100218161C161FEF780
:1054C0005BFB18B19E2104A001F096FA10BD00000C
:1054D00000140140201200202E2E2F5372632F75CE
:1054E000736172742E63000000BFFEE77047000016
:1054F0001FB517A103C9CDE902010020009001905A
:10550000052202A9302000F0EFF84FF47A70FBF783
:1055100033F905226946102000F01EF89DF80000BE
:10552000112812D19DF8010022280ED19DF8020009
:1055300033280AD19DF80300442806D19DF80400C1
:10554000552802D1012004B010BD0020FBE7000067
:1055500011223344550000002DE9F04106460C4667
:10556000154600224FF480710C48FCF715FC3046BC
:1055700000F078F8074604E0FF2000F073F8207090
:10558000641C281EA5F10101CDB2F5DC0122110237
:105590000248FCF701FC3846BDE8F08100040240F7
:1055A00070B50446072000F015F805462946272067
:1055B00000F0F6F805F0400050B1102221466120BD
:1055C000FFF7CAFFFF21E22000F0EAF8002070BDDB
:1055D0000120FCE770B5044600224FF480710948B1
:1055E000FCF7DAFB204600F03DF80646FF2000F00D
:1055F00039F80546012211020248FCF7CDFB284686
:1056000070BD00000004024010B5002201211348C3
:10561000FCF7C2FB052212492B2000F065F803219C
:10562000212000F0BDF80321222000F0B9F810215C
:10563000322000F0B5F83221252000F0B1F80F211A
:10564000262000F0ADF80F21202000F0A9F801225B
:1056500011460248FCF7A0FB10BD000000100240FC
:10566000EF85000801B582B04FF47A70012301AADA
:1056700002A900900248FDF766FC9DF804000EBDEB
:10568000C814002010B5002201211548FCF784FB46
:1056900005221449302000F027F8052211492A205C
:1056A00000F022F80121212000F07AF801212220C7
:1056B00000F076F8FA21242000F072F8322125203B
:1056C00000F06EF80F21262000F06AF80E2120204D
:1056D00000F066F8012211460148FCF75DFB10BDA1
:1056E00000100240EA8500082DE9F04107460C460B
:1056F000154600224FF480710C48FCF74DFB3846EC
:10570000FFF7B0FF8046002605E014F8010BFFF715
:10571000A9FF701CC6B2AE42F7DB0122110203489A
:10572000FCF73AFB4046BDE8F0810000000402406F
:1057300070B50546002201211748FCF72DFB102209
:105740002946A020FFF7D0FF012211461248FCF79E
:1057500023FB00BF04211148FCF712FB0028F9D1FC
:105760000720FFF737FF04464FF47A70FBF704F881
:105770002146272000F014F804F0100028B1FF2182
:10578000E12000F00DF8102070BD04F0200008B1F9
:105790000020F9E70120F7E700100240000C02406A
:1057A00070B505460C4600224FF480710848FCF79E
:1057B000F3FA2846FFF756FF2046FFF753FF064649
:1057C000012211020248FCF7E7FA304670BD0000E2
:1057D0000004024010B5002201210448FCF7DCFA65
:1057E000012211020248FCF7D7FA10BD0010024056
:1057F000000402400E480078C8B10E480078102816
:1058000012D10C48C07B20280ED10A488079094962
:10581000497900EB0120084988810648017AC0795E
:1058200001EB00200449C88100200149087070473D
:10583000A5000020B41800201A18002030B585B04B
:1058400004460D46FFF71EFF002003E000210DF87F
:105850000010401C0828F9DB10208DF800002020E3
:105860008DF80F008DF8024005F11000C0B28DF8E0
:1058700001006846FFF75CFFFFF7C6FE05B030BDCC
:1058800002480068C0F30220704700000CED00E001
:1058900010B5002807DA0A07140E054A00F00F03B6
:1058A0001B1FD45403E00A07130E024A135410BD01
:1058B00018ED00E000E400E07047014600BF080971
:1058C00000EB8000420001F00F001044C0B27047AE
:1058D0000146002203E0521CA1F10A00C1B20A29CC
:1058E000F9D2100741EA1060704770B504460025F0
:1058F0002068C06800F04000A0B9681E2168C86038
:10590000FCF750FA054607E0FCF74CFA401BB0F5EF
:105910007A7F01D9032070BD2068C06800F0400084
:105920000028F1D00020F6E73EB504462088614902
:105930000880608848802079087120890881608902
:10594000488107216846FBF7D5FA9DF8020000F070
:105950000F00012838D19DF8030000F00F002080CF
:1059600020884FF6FF7101EA0020208020889DF8F2
:10597000041008442080208840F25631884204DA1E
:105980002088081A401E208001E0002020809DF819
:10599000050000F00F00608060884FF6FF7101EA9B
:1059A0000020608060889DF8061008446080608850
:1059B000B0F5F07F05DA6088C0F5F070401E6080B9
:1059C00006E00020608003E040F6FF7020806080E9
:1059D0003848007968B9208840F6FF71884205D1BF
:1059E0006088884202D10020207129E001202071C6
:1059F00026E030480079012803D02E48007902289B
:105A00000DD1208840F6FF71884205D16088884218
:105A100002D10320207113E00220207110E02548FC
:105A2000007903280CD1208840F6FF71884205D107
:105A30006088884202D10020207101E0012020719D
:105A40002079022830D120881A490988401A00B2EA
:105A50002081208910B9002060710CE0B4F90800A1
:105A6000002802DD0220607105E0B4F9080000287A
:105A700001DA0120607160880E494988401A00B23D
:105A80006081608910B90020A07112E0B4F90A00A9
:105A9000002802DD0220A0710BE0B4F90A00002802
:105AA00007DA0120A07104E000206071A07120815C
:105AB00060813EBDAC00002010B586B004460120D8
:105AC000FAF74EFE20202070012269461048FCF7AC
:105AD000C3FE9DF8030060709DF80100A0709DF862
